:100000000C9428060C946F060C946F060C94CB1578
:100010000C946F060C946F060C946F060C946F068C
:100020000C946F060C946F060C94CD2B0C94A12CA1
:100030000C9415230C946F060C946F060C946F06A9
:100040000C946F060C946F060C946F060C946F065C
:100050000C946F060C946C230C946F060C946F0632
:100060000C946F060C946F060C946F060C946F063C
:100070000C946F060C946F060C946F060C946F062C
:100080000C946F060C946F060C946F060C946F061C
:100090000C946F060C946F060C946F060C946F060C
:1000A0000C946F060C946F060C946F06808182830B
:1000B0008485868788898A8B8C8D8E8F9091929388
:1000C00094A0A1A2A3A4A5A6A7A8A9AAABACADAED3
:1000D000AFB0B1B2B3B4C0C1C2C3C4C5C6C7C8C94A
:1000E000CACBCCCDCECFD0D1D2D3D4004350534CF9
:1000F0004B000A0A00556E6465660041646A0A0096
:100100004C6F776572005261697365004261736577
:100110000A004C41594552000A0A00556E64656652
:1001200000436C6D6B00517772740057494E004D5F
:10013000414300004D4F4445000A0A0029001E00BB
:100140001F002000210022002B0014001A000800CC
:1001500015001700350004001600070009000A000A
:10016000E1001D001B00060019000500E300E2008D
:10017000E0002B5D2C002D004C0027002600250000
:10018000240023003400130012000C0018001C008F
:10019000280033000F000E000D000B00E5003800B2
:1001A0003700360010001100E700E600E4002C5D87
:1001B0002A002E0035001E001F0020002100220012
:1001C000290014001A00090013000A002B00040083
:1001D0001500160017000700E1001D001B000600B7
:1001E00019000500E300E200E0002B5D2800A800F4
:1001F0003500270026002500240023002A003300B4
:100200001C0018000F000D00340012000C00080044
:1002100011000B00E50038003700360010000E001A
:10022000E700E600E4002C5D2C00000001003A002D
:100230003B003C003D003E0035001E001F0020003A
:100240002100220001001E021F02200221022202C0
:1002500001002E002D002E022F02300201000100AD
:100260000100010001000100310230022F024100B3
:1002700040003F00310230002F0025002400230001
:100280003102270226022502240223020100310046
:10029000330233002D002E00010001000100010097
:1002A0000100010001000100010001000100010046
:1002B0000100490046006500000000000100E20066
:1002C000E000E1000000390001007A007B007C00C2
:1002D0007D0000000100010001000100010001009B
:1002E000325D010001000100010001002A0001004F
:1002F0002F5D52002E5D4B002A004C004F00510034
:1003000050004E0001000000315D0000305D000033
:1003100001000100010001000100010000000000D7
:100320000000000000000000005C0000295D2A5D64
:10033000015D000000000000015D00000000000001
:1003400000000000000000000000000001000100AB
:10035000010001000100000000000000000000009A
:10036000000000000000000000000000000000008D
:1003700000000000A900A800AA0000000000000082
:10038000AB00AE00AC000000010001000100010064
:100390000100000044454255473A20646973616298
:1003A0006C65642E0A0044454255473A20656E61EB
:1003B000626C65642E0A000A0025303862003A201B
:1003C0000025303258000A722F6320303132333426
:1003D0003536370A006F6C65645F6F666620636D43
:1003E00064206661696C65640A0000AE6F6C6564C8
:1003F0005F6F6E20636D64206661696C65640A00DE
:1004000000AF6F6C65645F72656E64657239302031
:1004100064617461206661696C65640A006F6C6573
:10042000645F72656E6465722064617461206661E8
:10043000696C65640A006F6C65645F72656E646503
:1004400072206F666673657420636F6D6D616E6494
:10045000206661696C65640A00646973706C617917
:100460005F736574757032206661696C65640A003B
:1004700000DA0281FFD9F1DB20A4A62EAF646973F4
:10048000706C61795F666C69707065642066616923
:100490006C65640A0000A0C06F6C65645F696E697A
:1004A0007420636D64206E6F726D616C20726F7466
:1004B0006174696F6E206661696C65640A0000A1F1
:1004C000C86F6C65645F696E697420636D642073C6
:1004D00065742031206661696C65640A0000AED5E0
:1004E00080A81FD300408D142000000000000000F1
:1004F0003E5B4F5B3E003E6B4F6B3E001C3E7C3EC6
:100500001C00183C7E3C18001C577D571C001C5ECC
:100510007F5E1C0000183C180000FFE7C3E7FF00E7
:10052000001824180000FFE7DBE7FF0030483A0618
:100530000E00262979292600407F05050700407F07
:1005400005253F005A3CE73C5A007F3E1C1C080032
:10055000081C1C3E7F0014227F2214005F5F005F96
:100560005F0006097F017F00006689956A00606070
:100570006060600094A2FFA2940008047E0408005A
:1005800010207E20100008082A1C0800081C2A08D9
:1005900008001E10101010000C1E0C1E0C0030382D
:1005A0003E383000060E3E0E06000000000000003F
:1005B00000005F000000000700070000147F147FA8
:1005C0001400242A7F2A120023130864620036498B
:1005D00056205000000807030000001C22410000C4
:1005E0000041221C00002A1C7F1C2A0008083E082B
:1005F00008000080703000000808080808000000AB
:10060000606000002010080402003E5149453E0091
:1006100000427F4000007249494946002141494D4E
:1006200033001814127F10002745454539003C4A15
:10063000494931004121110907003649494936002D
:10064000464949291E000000140000000040340003
:100650000000000814224100141414141400004176
:10066000221408000201590906003E415D594E005E
:100670007C1211127C007F49494936003E414141BC
:1006800022007F4141413E007F49494941007F09A5
:10069000090901003E41415173007F0808087F00AD
:1006A00000417F4100002040413F01007F081422AB
:1006B00041007F40404040007F021C027F007F04D9
:1006C00008107F003E4141413E007F0909090600B4
:1006D0003E4151215E007F091929460026494949BA
:1006E000320003017F0103003F4040403F001F20D4
:1006F00040201F003F4038403F006314081463004F
:100700000304780403006159494D4300007F4141CF
:100710004100020408102000004141417F00040212
:100720000102040040404040400000030708000070
:100730002054547840007F284444380038444444CE
:100740002800384444287F003854545418000008C6
:100750007E09020018A4A49C78007F080404780095
:1007600000447D4000002040403D00007F102844B0
:10077000000000417F4000007C04780478007C0881
:1007800004047800384444443800FC182424180039
:1007900018242418FC007C0804040800485454540D
:1007A000240004043F4424003C4040207C001C20E2
:1007B00040201C003C4030403C00442810284400AD
:1007C0004C9090907C004464544C440000083641A6
:1007D0000000000077000000004136080000020120
:1007E000020402003C2623263C000000000000001A
:1007F000404040F0F8F8FF38FFF8F83FF8F8FF38CD
:10080000FFF8F8F040404000000000000080C0C049
:10081000C0800000C0C08000000080C0C000C0C018
:10082000000080C0C00000000000C0C0C0C0C00008
:10083000C0C0000000000000000000000000000038
:1008400000000000000000000000000000000000A8
:100850000000000000000000000000000000000098
:10086000000000000000000000C0F0F8FC3E1E0682
:10087000010000007F4141417F007F4141417F00F5
:100880000080C0E07E5B4F5BFEC00000C000DCD794
:10089000DEDEDED7DC00C00000000000000000004B
:1008A0000000000000000000000000000000000048
:1008B000494949FFFFFFFFE0DFBFBF00BFBFDFE0E7
:1008C000FFFFFFFF49494900000000001F3F606033
:1008D000E0BF1F007F7F071E381E077F7F007F7FDE
:1008E0000E1F3B716000000000007F7F0C0C0C00AD
:1008F0007E7E007F7E0303007F7E03037E7E0303F4
:100900007F7E000F3E703C063C703E0F00327B49FC
:10091000493F7E007F7E0303001E3F69696F26000A
:10092000000000000000000000030F1F3F3C787033
:10093000600000007F4141417F007F4141417F00D5
:10094000307B7F7830202030787F3B0003000F7FA2
:100950000F0F0F7F0F0003000000000000000000D9
:100960000000000000000000000000000000000087
:10097000010101070F0F7F0F7F0F0F7E0F0F7F0FFA
:100980007F0F0F07010101000000000000000000C0
:100990000001010000000000000000000000000055
:1009A0000000000000000000000000000000000047
:1009B0000000000000000000000000000000000037
:1009C0000000000000000000000000000000000027
:1009D0000000000000000000000000000000000017
:1009E0000000000000000000000000000000000007
:1009F00000000000000000000000000000000000F7
:100A000000000000000000000000000000000000E6
:100A100000000000000000000000000000000000D6
:100A2000000000000000000000000A0025303258DD
:100A300020006B6579626F6172645F7265706F72BE
:100A4000743A20000A0025303258006B6579626FD5
:100A50006172645F7365745F6C65643A2000290A93
:100A6000002575002F002575005D280025640020F5
:100A700000256400200025640020002564007C001F
:100A800025303258006D6F7573656B6579205B6238
:100A9000746E7C782079207620685D287265702FCE
:100AA00061636C293A205B005B735D004B65796282
:100AB0006F6172642073746172742E0A005B575DFB
:100AC000005B535D005B525D005B445D005B435D1A
:100AD000000C0353006F0066006C00650000001AF4
:100AE000034A006F00730065006600410064006106
:100AF000006D00630069006B000000040309040935
:100B0000025B00030100A0FA0904000001030101D7
:100B1000000921110100012240000705810308009E
:100B20000A0904010001030000000921110100016C
:100B30002281000705820320000A09040200020343
:100B40000000000921110100012222000705830392
:100B5000200001070503032000011201100100001D
:100B6000000832FC87020100010200010631FF0982
:100B700074A1010975150026FF00952075088102F2
:100B80000976150026FF00952075089102C0050121
:100B90000902A10185020901A10005091901290520
:100BA00015002501950575018102950175038101E7
:100BB0000501093009311581257F950275088106E7
:100BC00009381581257F950175088106050C0A38BD
:100BD000021581257F950175088106C0C0050109B0
:100BE00080A101850319012AB700150126B70095D8
:100BF0000175108100C0050C0901A10185041901CE
:100C00002AA002150126A002950175108100C005D9
:100C1000010906A101050719E029E715002501953D
:100C200008750181029501750881010507190029E0
:100C3000FF150026FF0095067508810005081901BB
:100C40002905950575019102950175039101C00073
:100C500011241FBECFEFDAE0DEBFCDBF04B603FE26
:100C600027C08091DA049091DB04A091DC04B0915C
:100C7000DD048730904BA740B04BD1F41092DA04DA
:100C80001092DB041092DC041092DD0414BE84B7D1
:100C9000877F84BF0FB6F894A89580916000886123
:100CA00080936000109260000FBEE0E0F8E30995C9
:100CB00011E0A0E0B1E0E4E1FEE502C005900D9294
:100CC000A03CB107D9F724E0A0ECB1E001C01D922F
:100CD000AA3DB207E1F70E9404290C94E42E0C947B
:100CE0000000FF93EF93E091C001F091C1013097B4
:100CF00009F00995EF91FF910895FC0185918030ED
:100D000011F0EFDFFBCF0895FF27E0E230E247FF6D
:100D10000CC0419597FF09C0EDE2609570958095F4
:100D20009095611D711D811D911D27FF02C02195A8
:100D300030E350E2AA27660F771F881F991FAA1F6A
:100D4000A41710F0A41B63955A95A9F7AA3008F0D0
:100D5000A95FA05DAF93F3956115710581059105BC
:100D600041F7ED3211F4EF93F395F21718F43F9336
:100D7000F395FBCF8F91B5DFFA95E1F70895E991EF
:100D8000F9918591803021F0853219F0AADFF9CFF1
:100D9000089520E0E89455915532C1F3503311F491
:100DA000689455915A3348F4505390F3220F022E11
:100DB000220F220F200D250FF4CF0EF421958991DB
:100DC0009991533619F3533729F1533559F1BC0131
:100DD00088279927E8945C3621F489919991689441
:100DE0005591543639F446EF7EF077FF0DC08FEF02
:100DF0009FEF0AC055374AE039F0583540E121F0FD
:100E0000523642E009F00895FF93EF937DDFEF91B2
:100E1000FF91B7CFFF93EF93FC0181918030B9F33D
:100E200060DFFBCFFF93EF9368DFF1CFDF93CF93CA
:100E3000CDB7DEB72596A3DFCF91DF910895CF938D
:100E4000C82F0E94910D8111C3E08C2FCF9108957E
:100E50000E94910D60E0882309F477C089E391E056
:100E60000E947F1060E084E391E00E94911060E0B6
:100E700083E391E00E9491108091CC0460E080FFB8
:100E800018C08FE291E00E94911060917E027091F3
:100E90007F0280918002909181020E9459218823D3
:100EA00059F0813079F160E08BE191E00E947F1090
:100EB00008C08BE291E0E7CF60E086E291E00E941B
:100EC000911060E088E191E00E947F1060E082E193
:100ED00091E00E94911060917A0270917B02809162
:100EE0007C0290917D020E945921823031F170F094
:100EF0008330F9F0843029F160E085EF90E00E94C2
:100F0000911009C060E081E291E0D9CF60E08CE00F
:100F100091E00E947F1060E082EF90E00E947F10DD
:100F20000E94E91681FB662760F98CEE90E00C9434
:100F3000911060E086E091E0ECCF60E080E091E02D
:100F4000E8CF60E08BEF90E0E4CF8CEA90E00C9487
:100F50007F10CF93FB018B322DE5920709F46AC015
:100F600020F58C37910509F4DDC050F48A379105DE
:100F700009F402C18B37910509F4EEC0C1E04FC0FE
:100F800089322DE5920709F446C008F04BC08D3731
:100F90009105A1F7C28181E0CC2309F4D7C00E945A
:100FA000C30B0E94351989E1C6C08F322DE5920727
:100FB00009F475C0D0F4C2818D322DE5920709F491
:100FC0004FC008F443C08091CC048170CC2309F455
:100FD00059C0882309F44DC084E00E94C30B0E94CD
:100FE000351980E50E94A0181AC081332DE59207BB
:100FF00009F484C008F474C082339D4509F0BECF63
:10100000C28181E0CC2309F487C00E94C30B0E94F7
:1010100035198AE2E7CFC28180E0C11107C08C2F69
:10102000CF910895C281CC23D1F381E00E942A0997
:10103000C0E0F5CFC28182E0CC2351F00E942A1F8C
:1010400044E063E082E00E949109F2CF83E0F4CFB4
:101050000E944B1F44E063E082E00E949109DFCFD1
:1010600084E0CC2319F00E942A1FE2CF0E944B1F7C
:10107000D6CF81E00E94C30B0E94351980E50E9403
:10108000A0187CCF882349F084E00E94C30B0E9403
:101090003C1980E50E94EE1871CF81E0F6CFC28145
:1010A0008091CC048170CC2381F0882339F084E0D6
:1010B0000E94C30B0E9435198FE494CF81E00E94F7
:1010C000C30B0E9435198FE4DACF882339F084E00E
:1010D0000E94C30B0E943C198FE4DCCF81E0F8CF63
:1010E000C2818091CC048170CC2321F08111C1CFC9
:1010F0008AE478CF8111D1CF8AE4CCCFC2818091AC
:10110000CC048170CC2321F08111D8CF8DE46ACF3B
:101110008111E4CF8DE4BECF0E94C30B0E943C1925
:101120008AE2B8CFC28181E0CC2341F00E94C30B98
:101130000E94351986E00E94A0187ACF0E94C30B46
:101140000E943C1986E00E94EE1869CF0E94C30BF2
:101150000E943C1989E1F7CFC28181E0CC2331F0B4
:101160000E94C30B0E9435198BE1E5CF0E94C30B8F
:101170000E943C198BE1E7CFC28181E0CC2331F0A2
:101180000E94C30B0E9435198DE1D5CF0E94C30B7D
:101190000E943C198DE1D7CF811106C089EF611102
:1011A00001C08AEF0C941D19813029F48FE461117C
:1011B000F9CF80E5F7CF089581E008950C94A90751
:1011C00008950C94E0081F93CF93DF9300D000D0D4
:1011D0000F92CDB7DEB749835A836B8330911902E2
:1011E00089819A8131111DC06623B9F02223A9F0AB
:1011F0000E941D20182F682F89819A810E94C61F86
:1012000069817A81812F0F900F900F900F900F902E
:10121000DF91CF911F910C941E0A0E94F41F182F8A
:10122000EFCF0E941D2069817A81EDCFFC01262F2E
:10123000408151816281738184810C94E308CF9352
:10124000DF93EC0160E00E941609BE01DF91CF91AF
:101250000C94E108CF93DF93C1E0D0E002C0CC0F43
:10126000DD1F8A95E2F78C2F0E94D121BE0190E00C
:1012700080E0DF91CF910C94C81E8F929F92AF9225
:10128000BF92CF92DF92EF92FF920F931F936B0169
:101290007C0181E090E0A0E0B0E04C015D0104C081
:1012A000880C991CAA1CBB1C4A95D2F7B501A40155
:1012B0004C015D0104C0880C991CAA1CBB1C2A951A
:1012C000D2F7482959296A297B2904C0880F991F18
:1012D000AA1FBB1F0A95D2F78A019B010C211D2171
:1012E0002E213F21041715072607370789F48C297B
:1012F0009D29AE29BF29BC01CD011F910F91FF90FF
:10130000EF90DF90CF90BF90AF909F908F90089517
:1013100080959095A095B0958C219D21AE21BF21FF
:10132000EACF0F93382F262F60917A0270917B02BB
:1013300080917C0290917D02042F432F0E943D09F1
:101340000F910C94041F0E94BE21811102C00E94C3
:1013500067220C94070C0C940A0C08950E94A81B99
:101360000E94AD092FEF84E39CE021508040904023
:10137000E1F700C000000C9490230F931F93CF93CC
:10138000DF93EC0161E00E9416098C01BE010E940E
:10139000DE08882311F1BE01C8010E948D12882346
:1013A000E1F0BE01C8010E94DF128823B1F0BE0146
:1013B000C8010E940214882381F08A81882341F1A8
:1013C00001308CE5180779F00F3D8CE51807E9F03E
:1013D00001151C45E9F40E94AE0980E0DF91CF9130
:1013E0001F910F91089590918F02892F8E7F90FF0A
:1013F000816080938F0280FF05C086EA93E00E949F
:101400007D06EBCF84E993E0FACF0E946722E5CF17
:10141000CE01DF91CF911F910F910C94DC080895BC
:101420000C940F0A81E008950C94120ACF93C82FF0
:101430000E94100A8C2FCF910C94140A972F70E001
:1014400026E0929F600D711D1124FB019CE3899F92
:10145000E00DF11D1124EE0FFF1FE45CFE4F85919E
:1014600094910895CF93DF930E941E0A0E942C0B43
:10147000EC01811521E5920708F042C0811530E5A5
:10148000930708F09DC0883E910530F5803E910598
:1014900008F092C0883A910588F4853A910508F0E1
:1014A00084C08130910509F487C0009709F484C095
:1014B000049708F081C0D0E0C0E07EC08F3B91056A
:1014C000D0F7C85AD0E0CC0FDD1FC95DDE4F0990C0
:1014D000D881C02DD46470C08115904250F4C115DC
:1014E00081E0D80708F068C0C03FD10520F3D0657F
:1014F00063C0C11590E4D907F0F2DF70D06A5CC018
:10150000811525E5920700F5811534E5930708F06C
:101510008BC0811543E5940708F073C0C11582E5BF
:10152000D80708F469C0CE018370992721E030E024
:1015300002C0220F331F8A95E2F7C695C69580E256
:10154000C89FE001112454C0C11599E5D907A8F43A
:10155000C11528E5D20708F06CC0C11536E5D307E0
:1015600008F0A9CF8C2F0E94C30BC82FD0E0DC2F2E
:10157000CC27CC27DF71D0621FC0C1154AE5D40744
:1015800008F45CC0CE0190568115904208F093CFCC
:101590008D2F8F710E94C30B90E0982F882788278A
:1015A0009F719C012C2BE901E6CFC55AD0E0CB5AA4
:1015B000DE4FC881D0E0D064CE01DF91CF91089595
:1015C000E4E096958795EA95E1F783702C2F2695B0
:1015D0002695237040E2249F90011124382B8C2FF4
:1015E0008370C1E0D0E002C0CC0FDD1F8A95E2F726
:1015F000C22BD32BDC68E0CFDC2FCC27C16FD06AA5
:10160000DBCF8370992721E030E002C0220F331F27
:101610008A95E2F7C695C69590E2C99FE00111242C
:10162000C22BD32BDA68C8CFD82FCC27C46FD06A8F
:10163000C3CFDC2FCC27C06FD06ABECF8C2F8F706A
:101640000E94C30B34E0D695C7953A95E1F7CF7069
:101650009C2FEC01D069B0CF82389105B1F1B0F484
:101660008133910509F475C048F48932910509F474
:1016700069C08A32910509F473C0089585339105D4
:1016800009F459C08933910501F10895833E91050C
:10169000A9F138F4803E9105F9F0823E910549F1B7
:1016A0000895863E9105A9F1873E9105C9F1843ED2
:1016B000910519F52091CC0421FF1FC08091CB0426
:1016C00084FD14C087EE90E008952091CB04237030
:1016D000A1F080EE90E008952091CB0420FD47C05A
:1016E0003091CC0430FF09C024FF44C090E080E07A
:1016F00004C02091CB0422FDF7CF08952091CB04A4
:1017000022FD3BC03091CC0430FDE3CF24FFF5CF68
:10171000EDCF2091CB0423FFF0CF24FDE7CFD2CF34
:101720002091CB0423FD2CC03091CC0431FFEECFAF
:1017300084EE90E008952091CB0425FFDECF89E26E
:1017400090E008952091CB0425FFD7CF85E390E06A
:1017500008952091CB0426FFD0CF8AE290E008952F
:101760002091CB0426FFC9CF81E390E0089589E35F
:1017700090E0089583EE90E0089582EE90E0089561
:1017800086EE90E008959091CB0492FF06C0282F3A
:1017900028712830F9F4877F846093FF06C0282FD2
:1017A00028712831F1F4877E84612091CC0420FFD8
:1017B00006C0382F38713830D9F4877F816021FF17
:1017C00006C0282F28712831D1F4877E816194FDCD
:1017D000877E0895282F24712430F9F68B7F886046
:1017E000DCCF282F2471243101F78B7E8861DDCF77
:1017F000382F3171313019F78E7F8860E0CF282F74
:101800002171213121F78E7E8861E1CF08950C94FA
:10181000060C08950C94090CE82FF0E0EB54FD4FF2
:1018200080810895CF92DF92EF92FF920F931F93E2
:10183000CF93DF9386EC93E00E947D0685EBE82E44
:1018400082E0F82ED0E0C0E091ECC92E93E0D92ED2
:1018500009EB13E0DF93CF93DF92CF920E9416073C
:101860008EEB93E00E947D06F70181917F010E943B
:10187000A6211F928F931F930F930E94160787EB49
:1018800093E00E947D0621968DB79EB708960FB60D
:10189000F8949EBF0FBE8DBFCA30D105D9F6DF9137
:1018A000CF911F910F91FF90EF90DF90CF9008950F
:1018B00080EA8A95F1F70895F894E82FE295EF70A1
:1018C000F0E031A1282F2F7081E090E001C0880F57
:1018D0002A95EAF7982F9095932391A392A1892BAB
:1018E00082A37894089508950E94AF0D809100011D
:1018F0008091000195E0811190E09093C00285E015
:10190000891B8093BF0286E60E945C0C87E90E94D7
:101910005C0C86EC0E945C0C84E30E945C0C85E30A
:101920000E945C0C86EF0E945C0C87EF0E945C0CAE
:1019300081E30E945C0C83E30E945C0C82E30E94C2
:101940005C0C86E30E945C0CEBEAF2E0A5EBB2E0F3
:1019500085EB92E011921D928E179F07D9F785E0D3
:101960000E945A0D0E94A3090C94B90D0E94910D7A
:101970008823F9F08091BF0290E08B549D4F0E9424
:10198000CC0D811113C08091C2018F5F8093C20181
:10199000863050F0E091BF02F0E0EB54FD4F108232
:1019A00011821282138214820C94AB091092C2012C
:1019B000FBCF8091C00290E08B549D4F0E94EB0DB5
:1019C0000C94730CCF92DF92EF92FF920F931F93C0
:1019D000CF93DF93CEE5D1E00BEA12E0D12CEE24D9
:1019E000E394F12C8991F894E82FE295EF70F0E000
:1019F00021A18F70A70102C0440F551F8A95E2F7FD
:101A0000CA01922F982B91A392A18095892382A33A
:101A100078940E94580CE8E5F1E030E020E0C12C19
:101A20004191A42FA295AF70B0E090968C9190E078
:101A30004F7002C0959587954A95E2F780FD36C0B4
:101A40008E2D022E01C0880F0A94EAF7C82A2F5F54
:101A50003F4F2630310521F7FE01319780810E94EA
:101A60005C0CF8018081C81619F1C08281E0D82A87
:101A70000F5F1F4FF1E0C336DF0709F0B3CF60916E
:101A8000C00270E06B547D4F2D2D45E08BEA92E053
:101A90000E945B0D0E94B60C8D2DDF91CF911F919E
:101AA0000F91FF90EF90DF90CF90089580E0CECF20
:101AB00080E0DDCF0895FF920F931F93CF93DF93C4
:101AC000F82E092F162FD72FC42F222349F081E09B
:101AD0008093C5010E9445239093C4018093C30164
:101AE0008091C5018823A1F08091C3019091C40128
:101AF0000E945D23069760F0EF2DF02FA12FBD2FE0
:101B0000CE0FDF2FD11DEC17FD0741F41092C50158
:101B1000DF91CF911F910F91FF90089581918D9347
:101B2000F2CF8091C601811111C08091D8008061EF
:101B30008093D8008AE18A95F1F700C09091D9008E
:101B4000892F817090FF82E08093C60181E090919F
:101B5000C601913009F080E008950C94910D0E9427
:101B6000AD0D809300010E94910D81110C94C00D68
:101B700008950E94910D811102C00C94C60D089524
:101B800061E070E081E091E00C94781561E070E034
:101B900081E091E00C948115CF93DF93D82FC92F6A
:101BA00090E080E00E945A16009799F4ED2FFC2FE8
:101BB000DC01A853BE4F2C912193019685309105ED
:101BC000B9F78DEC91E00E94CE0E81E0DF91CF91CC
:101BD000089580E0FBCF30E020E0FC014191CF018F
:101BE000F901E853FE4F40832F5F3F4F2530310509
:101BF000A1F78DEC91E00C94C50E0C94CC0880916B
:101C00000001811106C084EF80930A0185EF809363
:101C1000090120910A01A22FA295AF70B0E0919620
:101C20003C9191972F7081E090E0BC01022E01C0A1
:101C3000660F0A94EAF7462F4095432391964C93FA
:101C4000919792963C919297362B92963C939297CD
:101C500040910901E42FE295EF70F0E031A14F705F
:101C6000042E01C0880F0A94EAF7982F90959323C9
:101C700091A392A1892B82A390968C9190E002C0AF
:101C8000959587952A95E2F7817020A130E002C0F2
:101C9000359527954A95E2F792E020FF90E0892B51
:101CA0008093D3019091000181E098279093CF0118
:101CB000891B8093CE010895CF93E091D301EE0F5D
:101CC000EE0F20910A01A22FA295AF70B0E090967E
:101CD0008C9190E02F7002C0959587952A95E2F738
:101CE0008170992740910901A42FA295AF70B0E0AF
:101CF00090962C9130E04F7002C0359527954A950B
:101D0000E2F7A9014170552720FF02C042E050E0F0
:101D1000842BE82BE093D301C091CF01EF70F0E06A
:101D2000E859FE4F80819091D201890F8093D201B2
:101D300082306CF0EC2F0C2E000CFF0BE053FE4FAA
:101D400080818F5F808360E08C2F0E94FD0D8091E9
:101D5000D2018F3F6CF4EC2F0C2E000CFF0BE053E4
:101D6000FE4F80818150808361E08C2F0E94FD0DA9
:101D70008091D201082E000C990B62E070E00E9465
:101D8000722E8093D201CF910895E091CF01F0E0BF
:101D9000E053FE4F2081FC0120830895FF920F93B2
:101DA0001F93CF93DF93D091CE010D2F10E00053FE
:101DB0001E4FFC01C081F8018081C81BFC2E1F143E
:101DC00064F08C2FC7FD80E0C81BC11110C0DF91EB
:101DD000CF911F910F91FF900895FA94F80180819F
:101DE0008F5F808360E08D2F0E94FD0DE8CFCF5F75
:101DF000F80180818150808361E08D2F0E94FD0D6C
:101E0000E4CFCF92DF92EF92FF920F931F93CF9385
:101E1000DF936C017B0164E670E088E70E94321476
:101E2000EC0197FD12C010E000E0F601E00FF11F99
:101E3000849164E670E00E948E14EC01892B29F4F1
:101E40000F5F1F4F0E151F0581F70E941115CE0160
:101E5000DF91CF911F910F91FF90EF90DF90CF9086
:101E60000895E1ECF2E080E092E0DF019C011D9238
:101E700021503040E1F7F093C604E093C5048FEFA2
:101E80009FEF909300028093FF0108950E941F0727
:101E90008093FB0180FD13C080E88093FA010E94CB
:101EA0002C146DE070E08DED94E00E94010F892B01
:101EB00041F081EC94E00E947D0680E0089580E28C
:101EC000ECCF8091FB0163E070E081FD09C08EEBF7
:101ED00094E00E94010F892B61F088E994E0EBCF38
:101EE00085E994E00E94010F892B19F08DE794E0B9
:101EF000E2CF6DE070E080E794E00E94010F892B53
:101F000019F089E594E0D7CF0E945123605A7541BA
:101F10008F4F9F4F6093C1047093C2048093C3049A
:101F20009093C4040E94310F81E08093FE0180935E
:101F3000FD011092FC0108952091FA0136E0839F83
:101F4000C0011124629F800D911D1124811522E092
:101F5000920714F090E080E08F539D4F9093C60459
:101F60008093C50408952091C5043091C6042B5B6D
:101F700032404091FA01642F70E0C9010E945E2E48
:101F8000481B463010F4240F311D211582E038071C
:101F900010F030E020E02F533D4F3093C6042093E3
:101FA000C50408951F93CF93DF93162F8A3031F421
:101FB00081E0DF91CF911F910C944C108D3011F482
:101FC00080E0F7CFC091C504D091C60496E0FE0131
:101FD000A4EDB1E001900D929A95E1F7803EC8F032
:101FE00086E0FE0111928A95E9F711111EC0C09199
:101FF000C504D091C60446E050E0BE0184ED91E0F6
:102000000E94952E892BF9F4DF91CF911F910C94AA
:10201000B30FF6E08F9FB001112466517B4F46E06D
:1020200050E0CE010E948C2EE0CFE091C504F091EB
:10203000C6049F012A5F3F4F2E173F07C1F28081E0
:1020400080958193F9CFC15CD240CE0125E0969571
:1020500087952A95E1F721E030E0A90102C0440FFD
:10206000551F8A95E2F7CA014091FF015091000285
:10207000842B952B259645E0D695C7954A95E1F793
:1020800002C0220F331FCA95E2F7822B932B909345
:1020900000028093FF01B8CFCF93382FE091C504A1
:1020A000F091C604E15CF2402091FA01622F70E0E9
:1020B000CF010E945E2E281B822F332369F066E039
:1020C0000E94522EC82FC15010F4CF91089560E0A5
:1020D00080E20E94D20FF7CF9F01280F311D2115FA
:1020E000324018F080E0F0E0E0E08E0F9F2F911D6D
:1020F0008F539D4F9093C6048093C504E6CF1F93E2
:10210000CF93DF93EC01162FFE018491811104C05F
:10211000DF91CF911F910895612F0E94D20F2196D8
:10212000F3CF0E947F1081E00C944C108091FE014F
:10213000811103C08091FD0108950E945123605ACE
:1021400075418F4F9F4F6093C1047093C204809379
:10215000C3049093C4048091FD018111EBCF62E030
:1021600070E080E094E00E94010F892B29F08CEE52
:1021700093E00E947D06DECF81E08093FD01DACFFF
:102180002F923F925F926F927F928F929F92AF9227
:10219000BF92CF92DF92EF92FF920F931F93CF9354
:1021A000DF938091FE01882369F02091FF01309137
:1021B00000022115310531F08091FC0161E070E0F1
:1021C000882399F0DF91CF911F910F91FF90EF90AD
:1021D000DF90CF90BF90AF909F908F907F906F9047
:1021E0005F903F902F9008958F5F082F10E01B01A4
:1021F000082E02C0220C331C0A94E2F7A9014221E6
:102200005321452B89F39091FB0190FD31C08295BC
:10221000880F807680930D01980136952795369525
:10222000279520931001815E80930E011092110179
:1022300024E630E047E050E06BE071E088E70E9480
:10224000BD14892B19F186E394E0DF91CF911F91A2
:102250000F91FF90EF90DF90CF90BF90AF909F9045
:102260008F907F906F905F903F902F900C947D06A1
:10227000880F880F880F80930D0110921001895FDD
:1022800080930E0183E080931101D2CFA80125E055
:10229000440F551F2A95E1F78091FB0180FD10C086
:1022A0004F535D4F04E610E020E230E060E488E741
:1022B0000E94E414892B09F469C08DE194E0C5CF34
:1022C000EAEDF1E080E2DF011D928A95E9F7ACE7E3
:1022D000B1E008E711E080E8C82E81E0D82E97E051
:1022E000592E772473948D91E80129918E01240F42
:1022F000352F311D2F533D4FE82FF0E0E652FE4FB2
:1023000090E080E0652C681A872C082E01C0880CAC
:102310000A94EAF77901A12CE701B9907E01B8206F
:10232000662D6A196770962E062E000C770BDB2D32
:1023300001C0DD0F9A94EAF7719561957109677094
:10234000772701C0B6946A95EAF7BD2A6081962E78
:102350009B289082A39468E0A612DECF0196319666
:102360008830910579F6CA16DB0609F0BCCF04E681
:1023700010E020E230E04AED51E060E488E70E949E
:10238000E414892B19F082E094E05FCF0E9496104C
:10239000E101C095D0958091FF0190910002C82382
:1023A000D923D0930002C093FF010CCF8091FD018F
:1023B0009091FE01911103C091E08927089588232F
:1023C00089F062E070E08AEE93E00E94010F892BB1
:1023D00039F085ED93E00E947D068091FD0108951E
:1023E0001092FD018091FD01E7CF0F931F93809123
:1023F000FE01882319F160E080E00E949C0F0E949A
:1024000028070E94C0108091FD018823B9F00E9426
:1024100051230091C1041091C2042091C304309152
:10242000C404601B710B820B930B6F3F7F4F8F4F68
:102430009F4720F41F910F910C94D6111F910F917B
:1024400008950F931F93CF93DF93C42FD22FFC01D6
:1024500082818823C9F0409303020E944523909310
:1024600002028093010280E28C0F883008F050C095
:10247000C77081E001C0880FCA95EAF7DF91CF915C
:102480001F910F910C94351910910302141335C04C
:1024900080910102909102020E945D238436910591
:1024A00060F5C0E2CD0F1D17B9F080E2810F8830D2
:1024B00040F4177081E001C0880F1A95EAF70E9476
:1024C0003C19C83048F481E09D2F977001C0880FF7
:1024D0009A95EAF70E943519802F0E941D19C8307D
:1024E000B8F4D77081E001C0880FDA95EAF7DF9180
:1024F000CF911F910F910C943C1980E28C0F883082
:1025000038F4C77081E001C0880FCA95EAF7EFCFB1
:10251000DF91CF911F910F9108950F939C01CB01F3
:10252000243F4CE5340759F1A8F4293DFCE53F0769
:1025300001F12A3D4CE53407D1F1283D3C4591F4A9
:1025400006E221EE41EE68ED7CE50E94211280E07A
:102550000F910895263FFCE53F07E9F0B0F0273FD3
:102560003C45F9F0FC018281882339F11092030285
:10257000EFCF07E225EE45EE69ED7CE5E6CF06E21A
:1025800021EE40EE64EF7CE5E0CF07E225EE44EE7D
:1025900065EF7CE5DACF06E221EE42EE66EF7CE500
:1025A000D4CF07E225EE46EE67EF7CE5CECF08E21A
:1025B00021E045EE6AED7CE5C8CF81E0C9CFCF933D
:1025C000DF93EC01FB018281882309F419C1C23039
:1025D000FCE5DF07C0F1C6319CE5D90730F09E016C
:1025E0002B5F3C452930310570F50E94D621909330
:1025F000CC048093CB04C031ECE5DE0709F4CFC0F6
:1026000008F05BC0C8308CE5D80709F4B6C088F57F
:10261000C430ECE5DE0709F4A8C0C0F4C2308CE594
:10262000D80709F49CC08091CB048260C330DC459C
:1026300009F498C08091CB049091CC040E94E421CD
:102640000E94A81B80E0DF91CF9108958091CB0478
:102650008061C630ECE5DE0709F484C08091CB04CC
:102660008860C730DC4508F47DC08091CB0480626F
:1026700079C0CC308CE5D80709F489C070F480911A
:10268000CB048C60CA30ECE5DE0709F46BC008F4BB
:1026900078C08091CB048E7F65C0CE308CE5D807A2
:1026A00009F479C08091CB048B7FCF30DC4508F4EE
:1026B00059C08091CB048F7E55C0CC3FECE5DE073E
:1026C00009F457C030F5C3318CE5D80709F46FC061
:1026D00078F4C131ECE5DE0709F465C0C231DC45B0
:1026E00009F0A8CF0E94A81B8091CB048F773AC035
:1026F000C5318CE5D80709F462C008F476C0809132
:10270000CC048160CB3FDC4509F094CF8093CC04AE
:1027100091CFC115FDE5DF0709F44DC088F4809124
:10272000CC048D7FCE3F9CE5D90781F38091CC040A
:102730008E7FCF3FDC4550F38091CC048360E6CFA1
:10274000C230FDE5DF0709F459C008F444C080E059
:10275000C330DD4509F06ECF0E9469226BCF8091B6
:10276000CB0481608093CB0465CF8091CB048460DF
:10277000F9CF8091CC048260C9CF8091CB04806472
:10278000F1CF0E94A81B8091CB048068EBCF809191
:10279000CB048D7FE7CF8091CB04877FE3CF8091FF
:1027A000CB048F7DDFCF8091CB048F7BDBCF8091FB
:1027B000CB04837FD7CF8091CC048C7FA7CF80912F
:1027C000CB0482FB992790F921E0922790FB82F9B4
:1027D00090FB83F9C7CF8091CC04982F909591708E
:1027E0008E7F892B90FB81F991CF0E94A81B90913D
:1027F000CB04892F97FB87F98058B4CF81E0ACCF09
:1028000081E021CFCF93DF93EB0186319C4511F519
:102810000E94B2209A81992399F08A7A91E009F472
:1028200090E090930402811109C089E20E948D20FA
:102830000E94F12080E0DF91CF91089585E3F6CFEB
:1028400080910402811104C089E20E949420F0CF9B
:1028500085E3FBCF81E0EFCF1092B9008CE080934D
:10286000B8000895EF92FF920F931F93CF93DF93D9
:10287000182FEB011092BC0084EA8093BC000E94E8
:1028800045237C018091BC0087FF27C08091B9005F
:10289000887F883029F08091B900887F8031D9F510
:1028A0001093BB0084E88093BC000E9445238C01F8
:1028B0008091BC0087FF24C02091B900287F90E060
:1028C00080E02831B1F081E090E0203411F490E014
:1028D00080E09195819591090CC0CF3FDC0791F282
:1028E0000E9445238E199F098C179D0758F28EEF81
:1028F0009FEFDF91CF911F910F91FF90EF9008957F
:10290000CF3FDC07A9F20E944523801B910B8C1757
:102910009D0770F2ECCF8FEF9FEFEBCF0F931F93DC
:10292000CF93DF93EB018093BB0084E88093BC00DE
:102930000E9445238C018091BC0087FF11C020912B
:10294000B900287F81E090E0283211F490E080E027
:10295000919581959109DF91CF911F910F910895E4
:10296000CF3FDC0741F30E944523801B910B8C175E
:102970009D0708F38EEF9FEFEECFCF92DF92EF929D
:10298000FF920F931F93CF93DF936B018A0179011D
:10299000B9010E943214E6010C0D1D1DC017D107AC
:1029A00061F424E92093BC00DF91CF911F910F9136
:1029B000FF90EF90DF90CF90089597FDF2CFB70191
:1029C00089910E948E14EACFCF92DF92EF92FF920C
:1029D0000F931F93CF93DF93C62F6A017901B8013C
:1029E0000E94321497FD0CC0B8018C2F0E948E14E7
:1029F000E601EC0CFD1CCE15DF0511F097FF0CC0B5
:102A000024E92093BC00DF91CF911F910F91FF909B
:102A1000EF90DF90CF900895B80189910E948E14B5
:102A2000EACF84E98093BC0008958EE14A9B02C0FE
:102A30008150E1F74A9BFECF08955A9880E28A952B
:102A4000F1F75A9A0895FC013BE03A95F1F720E03E
:102A500090E080E031E040E14A95F1F7880F4A9B31
:102A600002C08160232742E04A95F1F7000040E16F
:102A70004A95F1F79F5F6913EECF90E19A95F1F7D0
:102A800099B132E03A95F1F7000040E14A95F1F74B
:102A900092FB992790F992272081920F90830895B5
:102AA000EF92FF920F931F93CF93DF930F92CDB7C7
:102AB000DEB719828C017C01E60EF11C0E151F0594
:102AC00061F481E09981911180E00F90DF91CF91C5
:102AD0001F910F91FF90EF9008950E94151568E0E7
:102AE000CE0101960E942315F80181938F01E6CF54
:102AF000909307028093060260930502529A5A9AB5
:102B000008959093070280930602609305025298FD
:102B10005A9AEA9AE9E6F0E080818F7C80830895F2
:102B20006150770B91E001C0990F6A95EAF720E0B8
:102B300031E0911108C0222391F05A9A80E28A95DF
:102B4000F1F75A980895492F482339F05A9A2327C4
:102B500040E24A95F1F79695ECCF5A98F9CF5A98FA
:102B6000EDCFFF920F931F93CF93DF93EC018C0176
:102B7000060F111DC017D10731F4DF91CF911F91BE
:102B80000F91FF900895F9900E941D1568E08F2D18
:102B90000E949015EFCF1F920F920FB60F92112443
:102BA0000F931F932F933F934F935F936F937F9355
:102BB0008F939F93AF93BF93EF93FF93CF93DF9345
:102BC0000F92CDB7DEB719820E94151567E0CE01CE
:102BD00001960E942315082F069506950695982FB5
:102BE00092959570202F2570920F292F237096951E
:102BF00096958770920F891344C08981811141C0D5
:102C0000809105028017E8F120E12A95F1F75A9AA0
:102C1000529A82E08A95F1F700C0A8E00A9FC001AD
:102C200011240091060210910702080F191F5A98EB
:102C3000F8016581662321F0868197810E94B11594
:102C40000E941D15F0E1FA95F1F75A9852985A9A98
:102C500020E12A95F1F7D80112966C91129766231C
:102C600031F113968D919C910E945015D801ED91F0
:102C7000FC91882311F088E001C082E080830E94EB
:102C800015150F90DF91CF91FF91EF91BF91AF910B
:102C90009F918F917F916F915F914F913F912F9174
:102CA0001F910F910F900FBE0F901F901895ED91EF
:102CB000FC91E1CF0F931F93CF93DF9320910502F7
:102CC000281719060CF471C08C0193E0000F111F36
:102CD0009A95E1F7C0910602D0910702C00FD11F6B
:102CE000F894529A5A9825E02A95F1F70000982F07
:102CF000969595708570980F892F83709695969507
:102D0000980F092B0E941D1500C067E0802F0E94BC
:102D1000901580E18A95F1F752985A9A4A9B17C00C
:102D200087E090E04A9915C06D81662321F18E817C
:102D30009F810E94501581111EC0529A5A9AE881B3
:102D4000F98182E08083789482E090E00DC000C039
:102D5000E5CF019771F4529A5A9AE881F98181E09E
:102D60008083789481E090E0DF91CF911F910F9163
:102D7000089500C0D7CF0E94151520E22A95F1F7DB
:102D80005A98529A80E18A95F1F76A81662321F078
:102D90008B819C810E94B1150E941D15E881F981EB
:102DA0001082789490E080E0DFCF84E090E0DCCF88
:102DB00090930D0280930C020895E0910C02F09123
:102DC0000D02309721F00190F081E02D099480E010
:102DD0000895E0910C02F0910D02309711F480E01B
:102DE00008950190F081E02D09950895EF92FF92EA
:102DF0000F931F93CF93DF938C01E0910C02F0911E
:102E00000D023097C1F10280F381E02D0995809188
:102E10008F0282FF30C080FF04C082E39AE00E94EC
:102E20007D06D0E0C0E08CE2E82E8AE0F82E8091AA
:102E30008F0280FF0EC0F801EC0FFD1F80811F92F2
:102E40008F93FF92EF920E9416070F900F900F90B2
:102E50000F902196C830D10551F780918F0280FFE5
:102E60000AC08AE29AE0DF91CF911F910F91FF9003
:102E7000EF900C947D06DF91CF911F910F91FF9001
:102E8000EF900895E0910C02F0910D02309739F027
:102E900022E0DC012C930480F581E02D0994089553
:102EA00020910A0230910B022817390771F0909394
:102EB0000B0280930A02E0910C02F0910D02309710
:102EC00021F00680F781E02D0994089520910802F1
:102ED000309109022817390771F090930902809305
:102EE0000802E0910C02F0910D02309721F000846D
:102EF000F185E02D0994089585B7806885BF85B771
:102F0000806885BF0895089508950C9483170895E7
:102F10000C9487170E947C170E9484170C948517C5
:102F20000C94910D089508950E943C230E94740C06
:102F300080E00E94460F0E94A1230E94FF0D0C9486
:102F40008817CF93C82F80918F0282FF1EC080FF09
:102F50001CC08BE49AE00E947D0680918F0280FF66
:102F600014C01F92CF9386E49AE09F938F930E94A0
:102F7000160780918F020F900F900F900F9080FF97
:102F800004C084E49AE00E947D068C2FCF910C94BB
:102F9000160AAF92BF92CF92DF92EF92FF920F93F9
:102FA0001F93CF93DF93CDB7DEB72A970FB6F89470
:102FB000DEBF0FBECDBF0E9492170E9493170E94E2
:102FC000E20CB82E0E949017882309F468C08FE0A5
:102FD000C82E82E0D82E10E000E0A02E802F0E94A4
:102FE0000C0CE82EF601F1906F01F81609F451C0AF
:102FF00080918F0281FD0E94120C9F2D9E2580E002
:10300000FF24F394292F2F2109F43EC08E83AF8231
:10301000EF2081E009F480E088870E9445238160E9
:10302000782F9A8789874E815F8168858A850E947B
:103030007118F801E15FFD4F8081F826F0820E944F
:103040005C0E0E94F511B1100E9496100E94CE25D0
:103050000E94DD1690910E02891791F10E94DD16F3
:1030600080930E022A960FB6F894DEBF0FBECDBF36
:10307000DF91CF911F910F91FF90EF90DF90CF9054
:10308000BF90AF900C94A1178F5FFF0C863009F0B2
:10309000B9CF0F5F1F4F0A30110509F09ECF8FEF98
:1030A00089838A831B820E9445238160782F9D83B8
:1030B0008C8349815A816B818D810E947118BFCFA9
:1030C0002A960FB6F894DEBF0FBECDBFDF91CF9129
:1030D0001F910F91FF90EF90DF90CF90BF90AF9036
:1030E0000895CF93DF93CDB7DEB72B970FB6F89443
:1030F000DEBF0FBECDBF4F83588769877A878B8726
:103100001E821D8285E0FE013796DE011196019038
:103110000D928A95E1F749815A816B817C818D817D
:103120009E812B960FB6F894DEBF0FBECDBFDF9108
:10313000CF910C941E1EFC01808191810C945F2024
:10314000CF93C82F882309F447C08CEF8C0F813AA6
:10315000A0F46C2F80911201909113010E948022A3
:10316000882329F08C2F0E9494200E94F1208C2F1C
:103170000E948D20CF910C94F12080E28C0F88303A
:1031800048F4C77081E001C0880FCA95EAF70E9431
:10319000B520F0CFEBE5EC0FE33040F4F0E0E25582
:1031A000FE4F808190E0CF910C945017E8E5EC0F32
:1031B000E73150F4F0E0EE0FFF1FE058FE4F808142
:1031C0009181CF910C946617C03F30F08C2F0E94F4
:1031D0004624CF910C943125CF910895882361F135
:1031E0009CEF980F913A20F40E9494200C94F120C7
:1031F00090E2980F983050F4877091E001C0990FD9
:103200008A95EAF7892F0E94BB20F0CF9BE5980FA3
:10321000933020F490E080E00C94501798E5980FDC
:10322000973120F490E080E00C946617803F20F006
:103230000E94AE240C9431250895CF93C82F0E948C
:10324000A018C93369F42FEF87EE93E02150804036
:103250009040E1F700C000008C2FCF910C94EE1845
:103260008FE39CE90197F1F7F5CF882321F00E94C5
:10327000B5200C94F1200895882321F00E94BB20F2
:103280000C94F1200895BF92CF92DF92EF92FF92BB
:103290000F931F93CF93DF936C01D62FC72FFC01A1
:1032A000058102950F70128111110E94D2200E9497
:1032B000AB20E82E882391F01123E9F08C2F807F3A
:1032C000803421F080E28D0F8830A8F082E00E94E7
:1032D0003C210E94AB2091E0E82EE926BC2EB2945E
:1032E0009FE0B922FBE0FB15A8F1EB2DF0E0EA51DD
:1032F000F14D0C94862EE12CF1CF0C2F0F70C07F76
:1033000011F00295007F1123A9F0002359F080E20B
:103310008D0F883010F0D11109C0802F0E94B52088
:103320000E94F1208D2F0E94A01814C0802F0E94AF
:10333000C520F6CF8D2F0E94EE18002359F080E2B1
:103340008D0F883010F0D1112BC0802F0E94BB2030
:103350000E94F120EB2DE850FF0B349720F40E94DF
:10336000DD160E94160AEE2009F493C10E94A720E0
:1033700080FD8FC1F60112820E94A1200E942A1FA7
:10338000C6010E946A1B0E94A120DF91CF911F916C
:103390000F91FF90EF90DF90CF90BF900C944B1F58
:1033A000802F0E94CB20D4CF2C2F2F70F22EC07FE5
:1033B000C03219F0F29480EFF822DD2369F0D130A9
:1033C00049F1112391F1002351F1F601858180FF2C
:1033D000A9CF8F70858323C0112381F0011106C00E
:1033E0000E94D8208F290E943519B4CF0130C1F72F
:1033F0000E94D8208F290E94DE20ACCF011106C088
:103400000E94E7208F2D0E943C19A4CF013009F4BF
:10341000A1CFF6CF112329F0063008F09BCF8F2DD6
:10342000E2CF053008F096CFEDCF002359F3D93322
:1034300009F027C1FFEF27EE33E0F1502040304084
:10344000E1F700C000008D2F0E94EE1883CF8C2F73
:1034500086958695837069F0813009F07BCF8D2F3A
:103460009C2F9370111102C090E080E00E946617BB
:1034700071CF8D2F9C2F9370111102C090E080E0CE
:103480000E94501767CF8D2F112329F00E944624E8
:103490000E9431255FCF0E94AE24FACF8C2F83701B
:1034A00009F041C0111156CF4D2F429546954770F6
:1034B000440F440F0D2F0F7010E030E020E0042E79
:1034C00004C0000F111F221F331F0A94D2F760E0BF
:1034D00070E0CB01D4FF0FC06FE070E080E090E0BF
:1034E00004C0660F771F881F991F4A95D2F7609511
:1034F000709580959095C695C695C370602B712B7D
:10350000822B932BC23049F058F4C13019F00E943D
:10351000DC1E20CF0E94CA1E1DCF0E94EE1E1ACFB5
:103520000E94C81E17CF8695112311F08C2F817031
:10353000882309F40FCF4D2F429546954770440FCD
:10354000440F0D2F0F7010E030E020E0042E04C077
:10355000000F111F221F331F0A94D2F760E070E0A2
:10356000CB01D4FF0FC06FE070E080E090E004C0BA
:10357000660F771F881F991F4A95D2F7609570953F
:1035800080959095C695C695C370602B712B822B44
:10359000932BC23049F058F4C13019F00E94A11F9A
:1035A000D9CE0E948F1FD6CE0E94B31FD3CE0E94C9
:1035B000041FD0CECF70112329F08C2F0E942A1F18
:1035C0008D2F11CF8D2F0E943C198C2F0E944B1FE5
:1035D000C1CED23F89F160F4D03FC9F0D13F29F18B
:1035E000112309F442C001119DCE8C2F8F7121C08F
:1035F000D33F39F1D43FA1F7112369F1CF718C2F5B
:103600000E942A1F63E08C2F0E942721A3CE112342
:1036100041F0053008F09ECE8C2F8F710E946E1FF6
:1036200099CE063008F096CEF7CF8C2F8F711123EC
:1036300069F20E942A1F8ECE8C2F8F711123C9F33D
:10364000C5CF112329F08C2F8F710E94151F82CEB8
:103650000E94101F7FCE81E00E943C21023008F4BE
:1036600079CE82E00E943C2175CE002379F0D933D7
:1036700041F49FEFE7EEF3E09150E040F040E1F7D6
:10368000E0CE8FE39CE90197F1F7DBCE8C2F8F71B1
:103690009DCFDF91CF911F910F91FF90EF90DF9021
:1036A000CF90BF9008950F931F93CF93DF93EC01BA
:1036B000688179818A810E9469208C010E94C51FDE
:1036C0000E94C71EB801CE01DF91CF911F910F91CB
:1036D0000C944319CF93DF93EC018B819C81892B50
:1036E00029F08881998189238F3F59F4DF91CF9107
:1036F0000895CE010E94531BCE01DF91CF910C940F
:103700001F09CE010E94BD098111F3CF0E94AB2099
:10371000882361F38A81882349F382E0DF91CF9186
:103720000C943C210E94D2200E94D5200E94F120BE
:103730000E94DA260E94312590E080E00E94501716
:1037400090E080E00C9466170E949B200C94921BE2
:103750000E94C2200C94A41BE92FE295EF70E25066
:10376000EE3070F4F0E0EE50F14D0C94862E803F78
:1037700019F020F4883E20F481E00895843FE1F3BD
:1037800080E00895883EC0F3813FD1F7F5CF93FBE9
:10379000882780F908950E945F200C94AC1BCF937A
:1037A000DF9300D000D00F92CDB7DEB70F900F900F
:1037B0000F900F900F90DF91CF910895CF93DF93EB
:1037C00000D000D000D0CDB7DEB726960FB6F89463
:1037D000DEBF0FBECDBFDF91CF9108951F93CF9372
:1037E000DF93C0911A0216E080911B028C1304C073
:1037F000DF91CF911F910895D0E01C9FF0011D9F94
:10380000F00D1124E45EFD4F40815181628173818E
:10381000848195810E94DE1B2196C770E5CF40917F
:103820004C0250914D0260914E0270914F02809176
:103830005002909151020C94DE1B1F93CF93DF93A3
:1038400080915102807FA9F480914E02882389F0F3
:1038500080911A02C0911B0260914C0270914D023E
:10386000A0914F02B0915002D62FD72316E0C81373
:1038700004C0DF91CF911F91089590E0109711F04F
:10388000DF3F19F401968770F2CF189F9001199FBE
:10389000300D1124F901E45EFD4F41814713F2CF51
:1038A00040814613EFCF42814111ECCF43815481D7
:1038B0004A1B5B0B4436510528F7809151028F70EB
:1038C000806180935102F901EF5DFD4F80818F701F
:1038D000806180838CE492E00E946A1BDF91CF912B
:1038E0001F910C94EE1BAF92BF92CF92DF92EF929A
:1038F000FF920F931F93CF93DF93CDB7DEB76197FE
:103900000FB6F894DEBF0FBECDBF8C0185E0F80185
:10391000DE011D9601900D928A95E1F7F801408134
:103920005181E2808CE4C82E82E0D82E60914F0253
:10393000709150026115710509F461C190914C02BA
:1039400020914D02892F82238F3F09F458C1A38013
:10395000B480F0904E02F501E61BF70BFF2009F44E
:10396000FCC080915102382F307FE436F10508F019
:10397000B2C0311179C0FE2C251323C0941321C08D
:10398000E1101FC08F708061809351020E940F1C54
:10399000C6010E946A1B80915102F80185838F2D18
:1039A00061960FB6F894DEBF0FBECDBFDF91CF9109
:1039B0001F910F91FF90EF90DF90CF90BF90AF904D
:1039C0000895AB2829F0842F85238F3F09F033C158
:1039D00080E0F82FF170DF2E80FF3CC080911A024A
:1039E00020911B0236E0821315C04D875E878D85BE
:1039F0009E850E945F20292F22952F702230F0F0A3
:103A0000243018F59F70F1F0F8019581907FD1F482
:103A1000D12C1EC090E0389FF001399FF00D112489
:103A2000E45EFD4F6181651306C06081641303C0CD
:103A300062816E110FC001968770D5CF9F7011F013
:103A4000882331F3805E883018F3C8010E946A1B16
:103A5000FD2CA5CFEE2009F4A2CF80915102816008
:103A600080935102F12C9BCF251306C0941304C000
:103A7000F801EE2009F48DC04D875E878D859E8507
:103A80000E94CB1B882319F1EE2009F1809151028D
:103A9000803270F020914C0230914D0238872F8394
:103AA0001986BB86AA868C87CE0107960E946A1B60
:103AB00086E0F801ACE4B2E001900D928A95E1F75E
:103AC0000E941D1C0E940F1CFF24F39468CFC801A4
:103AD0000E946A1BF9CF311113C07A2DB98AA88AC6
:103AE0006E2D89890E94CF1B8CE492E00E946A1B94
:103AF00086E0F60111928A95E9F70E940F1CB2CF79
:103B000025130FC094130DC0E1100BC0F80185837D
:103B1000C8010E946A1B86E0F60111928A95E9F7B6
:103B20003ECF4D875E878D859E850E94CB1B882367
:103B300071F2EE2061F280915102803208F4B8CF28
:103B400020914C0230914D023A8329831B82BD8221
:103B5000AC828E83CE010196A9CFE436F10508F040
:103B600041C0FE2CEE2009F4B2CF25132AC09413D5
:103B700028C08091510280FD1BC0982F907FC1F01A
:103B8000F8018583903F31F0982F907F905F8F7080
:103B9000892B8583C8010E946A1B86E0F801ACE48A
:103BA000B2E001900D928A95E1F70E940F1CF7CECA
:103BB00086E0F801ACE4B2E001900D928A95E1F75D
:103BC000EECE4D875E878D859E850E94CB1B811131
:103BD0006FCF80915102816080935102C8010E9491
:103BE0006A1BDDCE7A2DB98AA88A6E2D89890E943A
:103BF000CF1B86E0F60111928A95E9F7D6CFEE2029
:103C000009F465CF4D875E878D859E850E94CB1B0D
:103C1000F82E882309F45BCF86E0F801ACE4B2E02B
:103C200001900D928A95E1F78CE492E00E949B1836
:103C30000E941D1CBACF81E08E25CBCE1F93CF935F
:103C4000DF93CDB7DEB72C970FB6F894DEBF0FBE6B
:103C5000CDBF4F83588769877A878B879C87CE0132
:103C600007960E94731C882369F08A859B85892B9F
:103C700039F04F815885842F85238F3F09F071C01B
:103C800016E05FC086E0FE013796DE0111960190D6
:103C90000D928A95E1F78A859B85892B89F38F811F
:103CA000988589238F3F61F320911B0230E0C90181
:103CB00001968770992740911A024817190671F4E6
:103CC0000E94A81B10921B0210921A0286E0ECE4DC
:103CD000F2E0DF011D928A95E9F7D2CF96E0929F3C
:103CE000D001939FB00D1124A45EBD4FFE0131960B
:103CF00001900D929A95E1F780931B020E94EE1BB2
:103D0000BFCF819FC0011124845E9D4F0E94731C10
:103D10008823E9F0E0911A021E9FF0011124E45E6D
:103D2000FD4F4081518162817381848195810E9420
:103D3000DE1B80911A0290E001968770992780938C
:103D40001A0280911A0290911B028913DACF2C96E5
:103D50000FB6F894DEBF0FBECDBFDF91CF911F919C
:103D6000089569857A858B859C850E94DE1B88CFA6
:103D700008950C94B81E0E94B91E60937E02709341
:103D80007F0280938002909381020C94921B08958D
:103D90000C94BB1E0F931F9300917E0210917F0223
:103DA0002091800230918102602B712B822B932B0A
:103DB0001F910F910C94BB1E0F931F9300917E02D5
:103DC00010917F0220918002309181026023712343
:103DD000822393231F910F910C94BB1E0F931F936B
:103DE00000917E0210917F02209180023091810229
:103DF00060277127822793271F910F910C94BB1E78
:103E00000C94B81E0C94001F0E94021F60937A024B
:103E100070937B0280937C0290937D020C94921BA2
:103E200060E070E0CB010C94041F0F931F9341E0FE
:103E300050E060E070E08A019B0104C0000F111F98
:103E4000221F331F8A95D2F7C901B8011F910F9124
:103E50000C94041F0F931F9341E050E060E070E06A
:103E600004C0440F551F661F771F8A95D2F78091B3
:103E70007A0290917B02A0917C02B0917D028A012E
:103E80009B01082B192B2A2B3B2BC901B8011F9131
:103E90000F910C94041F0F931F9341E050E060E0DA
:103EA00070E004C0440F551F661F771F8A95D2F734
:103EB000CB01BA01609570958095909500917A023A
:103EC00010917B0220917C0230917D02602371234E
:103ED000822393231F910F910C94041F0F931F9320
:103EE00041E050E060E070E004C0440F551F661FE1
:103EF000771F8A95D2F780917A0290917B02A091E8
:103F00007C02B0917D028A019B01082719272A278C
:103F10003B27C901B8011F910F910C94041F0F9307
:103F20001F9300917A0210917B0220917C023091C4
:103F30007D02602B712B822B932B1F910F910C9480
:103F4000041F0F931F9300917A0210917B0220911E
:103F50007C0230917D0260237123822393231F9181
:103F60000F910C94041F0F931F9300917A021091EC
:103F70007B0220917C0230917D026027712782278D
:103F800093271F910F910C94041F0895E92FEE0FB2
:103F9000E90FEE0F8E0F982F977041E001C0440F8C
:103FA0009A95EAF786958695869595E0899FF00122
:103FB0001124EE5AFD4F30E020E070E05191DF0116
:103FC0001197CB01022E02C0969587950A94E2F7CD
:103FD000817081958527842385278C932F5F3F4FA0
:103FE0002530310559F70895E92FEE0FE90FEE0F4F
:103FF0008E0F982F977086958695869525E0829FDF
:10400000F0011124EE5AFD4F50E040E080E0219194
:1040100030E0092E02C0369527950A94E2F7217008
:104020003327042E01C0220F0A94EAF7822B4F5F38
:104030005F4F4530510559F70895BF92CF92DF92F7
:10404000EF92FF920F931F93CF93DF938C01C09059
:104050007A02D0907B02E0907C02F0907D02809109
:104060007E0290917F02A0918002B0918102C82AC5
:10407000D92AEA2AFB2ACFE1D0E0BC2ED701C6011B
:104080000C2E04C0B695A795979587950A94D2F7FC
:1040900080FD0EC0219788F7B12C8B2DDF91CF9139
:1040A0001F910F91FF90EF90DF90CF90BF900895F8
:1040B000B8018C2F0E94320A019761F3EECFCF93A3
:1040C000DF93EC010E941D20BE01DF91CF910C9483
:1040D000320A1F93CF93DF93EB019091190299233A
:1040E00031F0CB01DF91CF911F910C945F20882399
:1040F00079F0CB010E941D20182F682FCE010E945D
:10410000C61FBE01812FDF91CF911F910C94320AFF
:10411000CB010E94F41F182FF4CF682F8091120159
:10412000909113010C94B622682F80911201909106
:1041300013010C94B82280911201909113010C94F8
:10414000BA22809182028595859585950895809102
:1041500082028770089590918202977081E009F43D
:1041600080E0089580918E02089590918E02892BAF
:1041700080938E020895809590918E02982390935B
:104180008E02089510928E02089590918D02892BCF
:1041900080938D020895809590918D02982390933D
:1041A0008D02089510928D02089510928C02089548
:1041B00080918302089508950C94DB2090918302EE
:1041C000981721F0809383020C94DC20089580914D
:1041D0008302882329F01092830280E00C94DC2073
:1041E0000895E0911201F091130180918E02808375
:1041F000E0911201F0911301808190918D02892B41
:104200008083E0911201F0911301808190918C02E2
:10421000892B808390918302992381F0E091120190
:10422000F09113018081892B8083809112019091FC
:1042300013010E946E2281110E94E72080911201D9
:10424000909113010C94F61608950C94242198E093
:10425000899F90011124622B609382020E942A1F81
:10426000809182028595859585950C9425211092E3
:10427000820280E00C94252190918202809589230E
:1042800080938202282F277071F4282F082E000CAB
:10429000330B9217130639F08595859585950E9405
:1042A0004B1F0C94372108959093C1018093C00156
:1042B0000895CF92DF92EF92FF926C01EE24FF24DB
:1042C00020E0C114D104E104F10419F0C701B601E2
:1042D00020E1C72ED82EE92EFF24C114D104E10419
:1042E000F10419F0285FC701B6016B017C0154E0AD
:1042F000F694E794D794C7945A95D1F7C114D10492
:10430000E104F10419F02C5FC701B6016B017C01D7
:1043100042E0F694E794D794C7944A95D1F7C11434
:10432000D104E104F10419F02E5FC701B60196959E
:10433000879577956795672B682B692B09F02F5F19
:10434000822FFF90EF90DF90CF900895829590E0BC
:104350009C01220F331F220F331F2C7C95958795CC
:10436000959587958373282B30E0C901880F991F95
:104370008A7A359527952575822B089590E080E0FF
:104380000E94AA2E21E08C3E9E4F09F020E0822F51
:10439000089582E090E00C94A22E83E090E00C94CB
:1043A000A22E682F83E090E00C94B02ECF9384E08F
:1043B00090E00E94A22EC82F81E290E00E94A22EDF
:1043C000982F8C2FCF910895CF93C92F682F84E019
:1043D00090E00E94B02E6C2F81E290E0CF910C947F
:1043E000B02EAB01BC018FE090E00C94C22EAB016B
:1043F000BC0183E190E00C94C22E60E070E0CB0140
:104400000C94F72160E070E0CB010E94F1210C9444
:10441000FD216CEE7EEF90E080E00E94CE2E60E009
:1044200082E090E00E94B02E60E083E090E00E9485
:10443000B02E10927E0210927F0210928002109293
:10444000810260E084E090E00E94B02E60E081E2B2
:1044500090E00E94B02E60E085E090E00E94B02ED7
:1044600060E086E090E00E94B02E6FEF87E090E081
:104470000E94B02E40E050E0BA0188E090E00E9437
:10448000C22E60E08DE090E00E94B02E40E050E04F
:10449000BA0188E190E00E94C22E60E087E190E0DE
:1044A0000E94B02E40E050E0BA018CE190E00E9402
:1044B000C22E60E080E290E00E94B02E40E050E02A
:1044C000BA0188E190E00E94C22E0C9402220C9462
:1044D0000922682F8EE090E00C94B02E9C012E5F94
:1044E0003F4FAC01485F5F4F80E02417350709F468
:1044F0000895F90191919F019923B9F38F5FF5CF49
:10450000662349F0FC01329608962191261729F07E
:10451000E817F907D1F780E0089581E008959C013C
:10452000FC0132969FEF80E04191461751F09F3F8A
:1045300019F4411101C0982F8F5F8630A9F79F3F72
:1045400009F40895290F311D97FD3A95F901628309
:104550000895FC01329608962191261303C0DF01CD
:1045600011971C92E817F907B9F708950C948F2258
:104570000C94A922029626E0FC0111922A95E9F7F3
:104580000895089508950C94C2220E94C322809138
:10459000D104843049F11092900288E190E020E447
:1045A0000FB6F894A895809360000FBE209360002A
:1045B00080E00E94160A0E94C32283B7817F846034
:1045C00083BF83B7816083BF7894889583B78E7FDC
:1045D00083BF0FB6F894A89580916000886180939E
:1045E0006000109260000FBE08950895CF930E945E
:1045F000C1220E94E20C0E94F522C0E08C2F0E9492
:104600000C0C811105C0CF5FCA30C1F7CF9108955E
:1046100081E0FCCF08950C940A230E94A81B0E94FD
:10462000DD160E94160A0C940B231F921FB61F92D0
:1046300011248F939F93AF93BF9380919002811128
:1046400013C08091C7049091C804A091C904B0918F
:10465000CA044196A11DB11D8093C7049093C8045C
:10466000A093C904B093CA04BF91AF919F918F9159
:104670001F901FBE1F90189582E084BD93E095BDEA
:104680009AEF97BD80936E0008952FB7F8948091AC
:10469000C7049091C804A091C904B091CA042FBF67
:1046A00008952FB7F8946091C7047091C804809161
:1046B000C9049091CA042FBF08959C014FB7F89484
:1046C0008091C7049091C804A091C904B091CA0414
:1046D0004FBF821B930B089578941F921FB61F92B1
:1046E00011248F939F93AF93BF938091C7049091B0
:1046F000C804A091C904B091CA040196A11DB11DBE
:104700008093C7049093C804A093C904B093CA04CB
:10471000BF91AF919F918F911F901FBE1F901895D1
:1047200087E797E7909301088093000888E19AE073
:104730000FB6F894A895809360000FBE9093600028
:10474000FFCF0E94BE21811102C00E9467220E94F9
:10475000C92180938F020E94D6219093CC0480932C
:10476000CB040E94CD21682F70E090E080E00E9491
:10477000C81E60917A0270917B0280917C029091B8
:104780007D020C94021F8091970280FF12C06091FD
:10479000190185E0689FB00111247595679575959D
:1047A000679560387105A8F561157105A1F1862F2F
:1047B000089581FF09C06091190185E0689FB001EB
:1047C000112475956795EDCF6091190182FD0AC09E
:1047D000809196028823D1F090911801609119017F
:1047E000891728F085E0689FB0011124DACF869FF1
:1047F000B001112485E0869F9001879F300D112420
:10480000692F70E0C9010E94722ECBCF65E070E085
:10481000CECF8FE7089581E008958091970280FFC1
:104820000CC06091150170E0759567957595679559
:104830006115710549F1862F089581FF06C06091C9
:10484000150170E075956795F3CF6091150182FDB4
:104850000BC0909195029923A1F060911401809171
:104860001501961738F0682F70E06038710500F375
:104870008FE70895899FC001112470E00E94722E75
:10488000F4CF61E070E0D7CF81E00895803F31F44C
:104890000E94C323819580939B020895813F19F460
:1048A0000E94C323F8CF823F31F40E94C323819535
:1048B00080939A020895833F19F40E94C323F8CF8E
:1048C000893F29F40E940D2480939C0208958A3F19
:1048D00021F40E940D248195F7CF8B3F31F40E9483
:1048E0000D24819580939D0208958C3F19F40E94B8
:1048F0000D24F8CF843F31F4809199028160809338
:1049000099020895853F21F4809199028260F7CF42
:10491000863F21F4809199028460F1CF873F21F492
:10492000809199028860EBCF883F21F480919902B1
:104930008061E5CF8D3F31F4809197028160809353
:10494000970208958E3F21F4809197028260F7CFFD
:104950008F3FB9F7809197028460F1CF90919A02CE
:10496000803F59F480919B0287FF0DC010929B02FB
:1049700091110BC01092960208C0813F81F4809182
:104980009B0218169CF3992381F080919C029091D0
:104990009D02892B09F064C0109295020895823F10
:1049A00049F497FFF0CF10929A0280919B028111F7
:1049B000ECCFE0CF833F19F41916ACF3E4CF20918C
:1049C0009C02893F29F41216F4F610929C02DBCF68
:1049D0008A3F19F427FFD7CFF8CF20919D028B3F54
:1049E00029F427FFD0CF10929D02CDCF8C3F19F430
:1049F0001216CCF3C8CF843F31F4809199028E7F98
:104A000080939902C0CF853F21F4809199028D7FD8
:104A1000F7CF863F21F4809199028B7FF1CF873FBA
:104A200021F480919902877FEBCF883F21F4809118
:104A300099028F7EE5CF8D3F31F4809197028E7F72
:104A400080939702A0CF8E3F21F4809197028D7FB3
:104A5000F7CF8F3F09F097CF809197028B7FF0CFF0
:104A6000089580918F0283FF7EC085E89AE00E94BE
:104A70007D06809199021F928F9380E89AE09F9320
:104A80008F930E9416078EE79AE00E947D06809120
:104A90009A02282F082E000C330B3F938F938BE73D
:104AA0009AE09F938F930E94160789E79AE00E94ED
:104AB0007D0680919B02282F082E000C330B3F931C
:104AC0008F9386E79AE09F938F930E94160784E75F
:104AD0009AE00E947D0680919C02282F082E000CEF
:104AE000330B3F938F9381E79AE09F938F930E94BC
:104AF00016078FE69AE00E947D0680919D02282F7E
:104B0000082E000C330B3F938F938CE69AE09F9313
:104B10008F930E94160789E69AE00E947D06809195
:104B200096021F928F9386E69AE09F938F930E943E
:104B3000160784E69AE00E947D06809197021F92F4
:104B40008F9381E69AE09F938F930E9416078EE5DC
:104B50009AE00E947D068DB79EB74C960FB6F894EA
:104B60009EBF0FBE8DBF0E9445239C0190919A026B
:104B700080919B02982B21F0309394022093930212
:104B800090919C0280919D02982B21F0309392028B
:104B90002093910288E992E00C944217EF92FF92E1
:104BA0000F931F93CF93DF9300D000D000D0CDB7E9
:104BB000DEB786E0E8E9F2E0DE01119601900D92A1
:104BC0008A95E1F7E0909A02F0909B0200919C0296
:104BD00010919D0210929A0210929B0210929C02D8
:104BE00010929D028E2D8F2991F0809193029091C9
:104BF00094020E945D23AC0190919602992309F4DE
:104C00003FC080911A018417150608F447C0802F11
:104C1000812B91F080919102909192020E945D23EC
:104C2000AC0190919502992309F477C08091160107
:104C30008417150608F47FC080919A0290919B0218
:104C4000892B90919C02892B90919D02892B11F0C8
:104C50000E94312586E0FE013196A8E9B2E001907C
:104C60000D928A95E1F726960FB6F894DEBF0FBE37
:104C7000CDBFDF91CF911F910F91FF90EF900895DD
:104C800020911B018AE0289F9001112424173507E9
:104C900008F0BDCF9F5F9093960202C09F3FD1F76F
:104CA000EE2059F00E94C3239FEF1E140CF491E0F4
:104CB000899F802D112480939A02FF2059F00E9431
:104CC000C3239FEF1F140CF491E0899F802D1124C2
:104CD00080939B0230919A02332309F498CF20915C
:104CE0009B02222309F493CF45EB3403C001112426
:104CF000992359F090939A0245EB240390011124D3
:104D0000332339F030939B0282CF81E080939A0263
:104D1000F3CF81E080939B027ACF209117018AE044
:104D2000289F900111242417350708F085CF9F5F35
:104D30009093950202C09F3FD1F7002359F00E9443
:104D40000D249FEF10160CF491E0899F802D112403
:104D500080939C02112359F00E940D249FEF11169D
:104D60000CF491E0899F802D112480939D02309155
:104D70009C02332309F460CF20919D02222309F481
:104D80005BCF45EB3403C0011124992359F0909374
:104D90009C0245EB240390011124332339F0309316
:104DA0009D024ACF81E080939C02F3CF81E0809303
:104DB0009D0242CF86E0E8E9F2E0DF011D928A958C
:104DC000E9F71092960210929502109297020895B8
:104DD0008091A90208959FB7F8941092A0029FBFF6
:104DE0009091D104943009F048C02091E9002F70CF
:104DF0003091EC00932F917030FD90E8922B23E0DE
:104E00002093E9002091EB0020FF34C02091EE00B8
:104E100027FF30C020919E02222321F02091E8003C
:104E200025FF28C010929E0226E03091E80035FF51
:104E300014C08093F1008091E80085FD27C0809127
:104E4000E80080FFFCCF8091E8008E778093E80037
:104E50009F709093E90080E008953091D104343040
:104E600049F43091EB0035FD05C0215041F481E05B
:104E700080939E029F709093E9008FEF0895EFE971
:104E8000FFE03197F1F700C00000CFCF8FB7F89463
:104E900021E02093A0028FBFDBCFCF93DF9300D020
:104EA0000F92CDB7DEB79091D104943019F5898374
:104EB0007B836A8382E08093E9008FEF9091E80022
:104EC000815095FD06C095ED9A95F1F7000081118E
:104ED000F5CF8091E80085FF0DC050E040E063E031
:104EE00070E0CE0101960E94C2298091E8008E7781
:104EF0008093E8000F900F900F90DF91CF9108956D
:104F0000BC0184E00C944D27BC0183E00C944D2738
:104F10009C0182E08093E9009FEF8091E80091502E
:104F200085FD06C085ED8A95F1F700009111F5CF5A
:104F30008091E80085FF0CC050E040E066E070E042
:104F4000C9010E94C2298091E8008E778093E80011
:104F50000895CF93DF93EC0181E08093E9008FEF18
:104F60009091E800815095FD06C095ED9A95F1F776
:104F700000008111F5CF8091E80085FF14C050E05A
:104F800040E068E070E0CE010E94C2298091E80014
:104F90008E778093E80088E0FE01A1EAB2E00190FC
:104FA0000D928A95E1F7DF91CF9108958DEC9AE00B
:104FB0000E947D068091D004811109C00E94522B6D
:104FC0000E94AF2B8091E20084608093E2000895FC
:104FD00089EC9AE00E947D061092D004089585EC39
:104FE0009AE00C947D0681EC9AE00C947D068DEBA2
:104FF0009AE00E947D060C940D2320919F022F5F62
:10500000822F62E30E94522E992319F020939F026F
:10501000089510929F028091A0028823F1F0809160
:10502000D1048430C1F49091E9009F702091EC008C
:10503000822F817020FD80E8892B93E09093E90016
:105040009091EB0090FF04C09091EE0097FD08C096
:105050008F708093E9001092A00208951092F100E1
:105060009091E80095FDFACF9091E80090FFF0CF85
:105070009091E8009E779093E800EACF42E061ECDF
:1050800081E00E94CE2A42E261EC82E00E94CE2AB8
:1050900042E261EC83E00C94CE2A8091D304833009
:1050A00009F45FC030F48130C1F1823009F49BC053
:1050B00008958A3009F487C08B3009F46DC08930B7
:1050C00009F04EC08091D204813209F049C080912C
:1050D000D6049091D704029708F042C08091E8006E
:1050E000877F8093E8008091E80082FF35C090912F
:1050F000F3008091F200029729F48091F1008B7FF8
:10510000813021F48091F1008093A9028091E80020
:105110008B778093E8000C94022B8091D204813A23
:10512000F9F48091E800877F8093E8008091D604AD
:105130009091D704892B61F468E081EA92E070E0F5
:105140000E94112A8091E8008B778093E8000895EF
:1051500060E090E080E0F3CF8091D1048111C3CF73
:1051600008958091D204813AD9F78091D604909124
:10517000D704892BA9F78091E800877F8093E80006
:105180008091E80080FFFCCF809126018093F100A0
:105190008091E8008E77BDCF8091D204813201F7F3
:1051A0008091D6049091D704892BD1F68091E800A4
:1051B000877F8093E8000E94022B8091D404809323
:1051C00026010C94A81B8091D204813249F680916B
:1051D000E800877F8093E8000E94022B8091D5042D
:1051E0008093AA0208958091D204813A09F0B8CF41
:1051F0008091E800877F8093E8008091E80080FF3D
:10520000FCCF8091AA02C2CF84B7877F84BF0FB63C
:10521000F894A89580916000886180936000109256
:1052200060000FBE80E890E00FB6F89480936100B4
:10523000909361000FBE0E948A170E94522B0E9419
:10524000AF2B8091E20084608093E2008BEE96E2C7
:105250000E94542178940E94372E0E9494178CE16A
:1052600091E00E94D8168CEA9AE00E947D06809117
:10527000D104853039F00E94C9170E9492170E940C
:105280009317F5CF88EA9AE00E947D060E94C52216
:105290008091CF04882359F30E94F622882339F3A2
:1052A0000E94AC29E4CF0C945529292F33272330B1
:1052B000310521F168F42130310509F443C0223071
:1052C000310509F444C090E080E030E020E026C0E1
:1052D0002132310551F122323105A9F763307105D0
:1052E00090F7FB01EE0FFF1FEC54FE4F2081318140
:1052F0006F547E4FFB01808190E010C09927813070
:10530000910581F0009729F00297E9F6E1EDFAE0C6
:1053100002C0EBEFFAE0849190E09F01FA01318343
:1053200020830895EFEDFAE0F6CF6330710558F66B
:10533000660F771FFB01E654FE4F2081318189E023
:1053400090E0ECCF82E190E02AE53BE0E7CF8BE50F
:1053500090E02FEF3AE0E2CF80E189BD82E189BDA4
:1053600009B400FEFDCF8091D8008F7D8093D800D6
:105370008091E00082608093E0008091E00081FDF8
:10538000FCCF0895AF92BF92CF92DF92FF920F931E
:105390001F93CF93DF936C01EB018A010E94212BB5
:1053A000F82E811123C00115110539F0F801808113
:1053B0009181C81BD90BC80ED91EB12CA12C2097E6
:1053C000A9F08091E80085FD22C08091E8008E77E9
:1053D0008093E80001151105A1F0F8018081918109
:1053E000A80EB91EB182A08285E0F82E8F2DDF9124
:1053F000CF911F910F91FF90DF90CF90BF90AF9012
:1054000008950E94212B8823D1F2F82EEFCFF601C8
:1054100081916F018093F1002197FFEFAF1ABF0ACE
:10542000CECFFC018091D8049091D90486179707BC
:10543000A0F06115710529F49091E8009E77909392
:10544000E80090E06115710551F4911108C0809158
:10545000E80082FF34C080E00895BC01F2CF809163
:10546000D1048823C1F18530C1F18091E80083FD2A
:1054700030C08091E80082FDEACF8091E80080FF93
:10548000E1CF8091F3002091F200382F6115710572
:1054900019F02830310558F091E02830310509F035
:1054A00090E02091E8002E772093E800CBCF819107
:1054B0008093F100615071092F5F3F4FE7CF8091DA
:1054C000D104882341F0853041F08091E80083FFCA
:1054D000BECF81E0089582E0089583E00895FC0145
:1054E0008091D8049091D90486179707A0F0611590
:1054F000710529F48091E8008E778093E80090E0B0
:105500006115710551F4911108C08091E80082FF86
:1055100035C080E00895BC01F2CF8091D10488238A
:10552000C9F18530C9F18091E80083FD31C08091D7
:10553000E80082FDEACF8091E80080FFE1CF809112
:10554000F3002091F200382F6115710519F0283011
:10555000310558F091E02830310509F090E0809154
:10556000E8008E778093E800CBCF84918093F100A0
:105570003196615071092F5F3F4FE6CF8091D10482
:10558000882341F0853041F08091E80083FFBDCF52
:1055900081E0089582E0089583E00895982F973080
:1055A00028F08F708093E90081E008959093E900DE
:1055B000242F762F50E0981731F07091EC00209155
:1055C000ED005091F00021FD02C09F5FE8CF3091C7
:1055D000EB003E7F3093EB003091ED003D7F309348
:1055E000ED003091EB0031603093EB007093EC00F4
:1055F0002093ED005093F0002091EE0027FDE5CFC1
:1056000080E008958091D20487FF13C08091E80064
:1056100082FF06C08091E8008B778093E80004C089
:105620008091D1048111F2CF08958091D104882313
:10563000D9F38091E80080FFF8CF8091E8008E7761
:10564000ECCF2091E4003091E50095E6A90120918E
:10565000EC00822F817020FF06C08091E80080FF5F
:1056600006C080E008952091E80022FD1AC08091D4
:10567000D104882389F0853089F08091EB0085FD85
:105680000FC02091E4003091E50042175307F9F272
:105690009150E1F684E0089582E0089583E0089552
:1056A00081E008950E94C02B0E94C82BE0EEF0E03C
:1056B000808181608083E8EDF0E080818F77808356
:1056C00019BCA7EDB0E08C918E7F8C9380818F7E8A
:1056D00080831092D00408950F931F93CF93DF938C
:1056E0000E94C02B0E94C82BC8EDD0E088818F7724
:1056F000888388818068888388818F7D888319BCAE
:105700001092D1041092CD041092CF041092CE04C6
:1057100000EE10E0F80180818B7F808388818160BA
:10572000888342E060E080E00E94CE2AE1EEF0E073
:1057300080818E7F8083E2EEF0E0808181608083D3
:10574000808188608083F80180818E7F808388815A
:1057500080618883DF91CF911F910F910895E8EDCB
:10576000F0E080818F7E8083E7EDF0E080818160D2
:10577000808384E082BF81E08093D0040C946C2B02
:10578000E8EDF0E080818E7F80831092E200089542
:105790001092DA001092E10008951F920F920FB656
:1057A0000F9211242F933F934F935F936F937F93A7
:1057B0008F939F93AF93BF93EF93FF938091E100FB
:1057C00082FF0BC08091E20082FF07C08091E10060
:1057D0008B7F8093E1000E94FD278091DA0080FF9B
:1057E00019C08091D80080FF15C08091DA008E7FAB
:1057F0008093DA008091D90080FF96C080E189BD56
:1058000082E189BD09B400FEFDCF81E08093D1041F
:105810000E94D6278091E10080FF19C08091E200AC
:1058200080FF15C08091E2008E7F8093E20080911E
:10583000E20080618093E2008091D80080628093D2
:10584000D80019BC85E08093D1040E94F327809191
:10585000E10084FF2BC08091E20084FF27C080E13B
:1058600089BD82E189BD89B5982F917080FFFBCFFA
:105870008091D8008F7D8093D8008091E1008F7E49
:105880008093E1008091E2008F7E8093E20080911E
:10589000E20081608093E2008091CD04882309F4C6
:1058A00049C084E08093D1040E94F7278091E100F1
:1058B00083FF29C08091E20083FF25C08091E10031
:1058C000877F8093E10082E08093D1041092CD0421
:1058D0008091E1008E7F8093E1008091E2008E7FD5
:1058E0008093E2008091E20080618093E20042E0D8
:1058F00060E080E00E94CE2A8091F0008860809372
:10590000F0000E94EF27FF91EF91BF91AF919F911F
:105910008F917F916F915F914F913F912F910F9058
:105920000FBE0F901F90189519BC1092D1040E94C1
:10593000E82770CF8091E30087FD93E09093D10436
:10594000B3CF1F920F920FB60F9211242F933F9354
:105950004F935F936F937F938F939F93AF93BF9377
:10596000CF93DF93EF93FF93D091E900DF708091A5
:10597000EC00C82FC17080FDC0E81092E900809152
:10598000F000877F8093F00078940E94E52C1092BD
:10599000E9008091F00088608093F000CD2BCF70FB
:1059A000C093E900FF91EF91DF91CF91BF91AF914B
:1059B0009F918F917F916F915F914F913F912F9127
:1059C0000F900FBE0F901F9018951F93CF93DF93EA
:1059D000CDB7DEB7AA970FB6F894DEBF0FBECDBF26
:1059E00082ED94E02091F100FC012193CF01F4E0DD
:1059F0008A3D9F07B9F70E944D288091E80083FFF8
:105A00001EC18091D2049091D3049A3008F017C13E
:105A1000E92FF0E0E050F14D0C94862E803899F09B
:105A2000823809F00CC18091D6048F70873008F05D
:105A300006C18093E9008091EB0085FB882780F9FF
:105A40001092E90006C08091CE049091CF0491118C
:105A500082609091E800977F9093E8008093F10036
:105A60001092F1008091E8008E77E5C0882309F458
:105A7000D3C0823009F0E3C08091D4048111D6C034
:105A80008091D6048F702FEF280F263008F0D7C0F2
:105A90008093E9002091EB0020FFC8C0933031F4DF
:105AA0008091EB0080628093EB00C0C09091EB008E
:105AB00090619093EB0021E030E001C0220F8A95C5
:105AC000EAF72093EA001092EA008091EB008860E8
:105AD000EACF8111B4C01091D4041F778091E30004
